:100000000C94EE000C9416010C9416010C9416013D
:100010000C9416010C9416010C9416010C94160104
:100020000C9416010C9416010C9416010C941601F4
:100030000C9416010C9416010C9416010C941601E4
:100040000C94C8070C9416010C9496070C94700736
:100050000C9416010C9416010C9416010C941601C4
:100060000C9416010C94160163825363000108007E
:100070000604000100000000240027002A00000000
:100080000000250028002B000404040404040404D8
:100090000202020202020303030303030102040833
:1000A00010204080010204081020010204081020E2
:1000B0000000000800020100000304070000000027
:1000C0000000000045000082000040002048545419
:1000D000502F312E3020353033204D79205365722A
:1000E00076696365200D0A436F6E74656E742D54D6
:1000F0007970653A20746578742F68746D6C0D0A98
:1001000052657472792D41667465723A20363030CA
:100110000D0A0D0A3C68746D6C3E3C686561643E76
:100120003C7469746C653E536572763C2F746974D7
:100130006C653E3C2F686561643E3C626F64793E4D
:100140003C68333E496F542050657274656D75612B
:100150006E2031333C2F68333E3C703E3C656D3E33
:1001600041676861205379616672696C61204D79DD
:100170007A616E74696E613C6272202F3E5633392B
:1001800032303030323C6272202F3E3136204A7598
:100190006C6920323030313C6272202F3E616768DA
:1001A000617379616672696C616D407374756465C1
:1001B0006E742E756E732E61632E69643C627220BC
:1001C0002F3E3C2F656D3E3C2F703E3C2F626F648E
:1001D000793E3C2F68746D6C3E00080E11241FBEE2
:1001E000CFEFD8E0DEBFCDBF11E0A0E0B1E0EEE19F
:1001F000FDE102C005900D92AE38B107D9F724E0B9
:10020000AEE8B1E001C01D92A338B207E1F710E0FB
:10021000CEEED0E004C02197FE010E946B0ECD3ED1
:10022000D107C9F70E9412080C948D0E0C9400009F
:10023000CF93DF932091E2032223C1F0FC012081C0
:100240002223A1F0C2EED3E0AEEDB3E09C012C5F1F
:100250003F4F899141919D918427892339F4E21779
:10026000F307B9F781E0DF91CF91089580E0FBCFEC
:10027000AF92BF92CF92DF92EF92FF920F931F93B4
:10028000CF93DF936C017B018B01040F151FEB01F2
:100290005E01AE18BF08C017D10759F06991D601A9
:1002A000ED91FC910190F081E02DC6010995892B1B
:1002B00079F7C501DF91CF911F910F91FF90EF90DA
:1002C000DF90CF90BF90AF900895FC01538D448D87
:1002D000252F30E0842F90E0821B930B541710F0F1
:1002E000CF96089501970895FC01918D828D9817FE
:1002F00061F0A28DAE0FBF2FB11D5D968C91928DD6
:100300009F5F9F73928F90E008958FEF9FEF089506
:10031000FC01918D828D981731F0828DE80FF11DCF
:10032000858D90E008958FEF9FEF0895FC01918DEA
:10033000228D892F90E0805C9F4F821B91098F73E3
:100340009927089586EE93E00E94960121E0892B7B
:1003500009F420E0822F089580E090E0892B29F0B5
:100360000E94A20181110C9400000895FC01A48D4B
:10037000A80FB92FB11DA35ABF4F2C91848D90E0C7
:1003800001968F739927848FA689B7892C93A089AA
:10039000B1898C91837080648C93938D848D981334
:1003A00006C00288F389E02D80818F7D80830895C7
:1003B000EF92FF920F931F93CF93DF93EC0181E0B5
:1003C000888F9B8D8C8D98131AC0E889F98980815C
:1003D00085FF15C09FB7F894EE89FF896083E8898F
:1003E000F98980818370806480839FBF81E090E081
:1003F000DF91CF911F910F91FF90EF900895F62E0E
:100400000B8D10E00F5F1F4F0F731127E02E8C8DA7
:100410008E110CC00FB607FCFACFE889F9898081EC
:1004200085FFF5CFCE010E94B601F1CFEB8DEC0F29
:10043000FD2FF11DE35AFF4FF0829FB7F8940B8F09
:10044000EA89FB8980818062CFCFCF93DF93EC0173
:10045000888D8823B9F0AA89BB89E889F9898C91AC
:1004600085FD03C0808186FD0DC00FB607FCF7CF68
:100470008C9185FFF2CF808185FFEDCFCE010E9468
:10048000B601E9CFDF91CF91089590E0FC01E055EE
:10049000FF4F2491FC01E456FF4F3491FC01E857D3
:1004A000FF4FE491EE23C9F0222339F0233001F10C
:1004B000A8F4213019F1223029F1F0E0EE0FFF1FEE
:1004C000E258FF4FA591B4918FB7F894EC91611168
:1004D00026C030953E233C938FBF08952730A9F066
:1004E0002830C9F0243049F7809180008F7D03C007
:1004F000809180008F7780938000DFCF84B58F77E5
:1005000084BDDBCF84B58F7DFBCF8091B0008F772A
:100510008093B000D2CF8091B0008F7DF9CF3E2B79
:10052000DACFCF93DF9390E0FC01E456FF4F2491A4
:1005300088579F4FFC0184918823D1F090E0880F69
:10054000991FFC01EC58FF4FA591B491FC01E258B2
:10055000FF4FC591D49161110EC09FB7F8948C9153
:10056000E22FE0958E238C932881E223E8839FBFBE
:10057000DF91CF9108958FB7F894EC91E22BEC9333
:100580008FBFF6CF3FB7F894809196019091970175
:10059000A0919801B091990126B5A89B05C02F3F65
:1005A00019F00196A11DB11D3FBFBA2FA92F982F99
:1005B0008827BC01CD01620F711D811D911D42E094
:1005C000660F771F881F991F4A95D1F708952FB797
:1005D000F8946091920170919301809194019091AF
:1005E00095012FBF08958091FA019091FB01982702
:1005F0008927982744972091180230E044E03595E8
:1006000027954A95E1F7220F331F220F331F821BD4
:10061000930B97FF02C090E080E0089520910E02B6
:1006200030910C0230930E0220930C0220910F02A5
:1006300030910D0230930F0220930D02EAEEF1E0AB
:1006400021A5820F911D25A585A7662381F021A7ED
:10065000892F9927319721E0E63EF20789F710921A
:100660001C0210921D0280E580931802089511A6C5
:10067000EFCF0F931F93CF93DF9370E066517E4FC0
:100680008A01075F1F4F213029F0223031F48A019F
:100690000250110930E020E003C000E010E09801B2
:1006A000EB01FA01E230F10558F0A991B991BA27AE
:1006B000AB27BA270A0F1B1F211D311D3297F2CF1E
:1006C000FA01EE7F6E0F7F1F4E175F0769F0FB0187
:1006D000408150E070E060E0762F652F542F442772
:1006E000040F151F261F371FA901662777274115FD
:1006F00051056105710519F022273327F1CF0095C7
:100700001095E82FF0E0E651FE4F10830183DF9152
:10071000CF911F910F910895EAEEF1E0108E118EA6
:1007200080E4848B158A868B20E044E150E06EE003
:1007300088E10C9439038EBD0DB407FEFDCF0895FA
:1007400061E080919A010E94450278940895F8949E
:1007500060E080919A010C9445020F931F93CF9310
:10076000DF93EC018B010E94A7032097B9F08AE385
:100770000E949B031EBCF801CE01019739F00DB415
:1007800007FEFDCF2EB51EBC2193F7CF2197C00FDA
:10079000D11F0DB407FEFDCF8EB58883DF91CF91B9
:1007A0001F910F910C94A0031F93CF93DF93182FE9
:1007B000C62FD42F0E94A7038C2F8F71812B0E94EC
:1007C0009B038D2F0E949B03DF91CF911F910C946F
:1007D000A003CF93C82FC076809190018C1799F019
:1007E00043E06FE180EA0E94D403C09390014C2F54
:1007F00050E085E0559547958A95E1F76FE180E8EF
:10080000CF910C94D403CF910895CF93DF93C82F49
:10081000D62F0E94E9034D2F6C2F80E4DF91CF91FA
:100820000C94D403CF93DF93C82FD72F0E940504D5
:100830006D2F81E08C0FDF91CF910C940504CF9345
:10084000C82F0E94E9030E94A7038C2F8F710E947A
:100850009B0380E00E949B03C7FF03C080E00E94CF
:100860009B03CEB50E94A0038C2FCF910895CF9308
:10087000DF93EC0140E86FE180E80E94D40340E898
:100880006FE180EA0E94D4034AE06CE180EA0E94B2
:10089000D40360E07CE082E00E941204BE01745F39
:1008A00086E00E94120440E060E08AE70E94D403E0
:1008B0000E94A7032097B1F08AE70E949B038091D2
:1008C000EA018EBDEBEEF1E0C651DE4FEC17FD07FD
:1008D00031F081910DB407FEFDCF8EBDF7CF0DB481
:1008E00007FEFDCF0E94A00348E06FE180E80E9470
:1008F000D403D0E0C0E08CE10E941F048A7029F488
:100900002196C83E83E0D807B1F78CE10E941F040E
:1009100081FD03C0C83ED34039F448E06FE180EA6E
:10092000DF91CF910C94D403DF91CF9108950F9371
:100930001F93CF93DF938C018896CAEED1E0988BFA
:10094000898B0E948C031AAA1BAAA801445E5F4FE0
:1009500022E06AE182E30E943903C801C696DF9172
:10096000CF911F910F910C943704CF93DF93EB013C
:10097000682F84ED0E940504BE0186ED0E941204DA
:100980008AEE0E941F0480FDFBCFDF91CF91089576
:10099000CF92DF92EF92FF920F931F9386349105CF
:1009A00068F120910D02233449F5C0901802D090CF
:1009B0001902E0901A02F0901B020091AC01109114
:1009C000AD012091AE013091AF01C016D106E20613
:1009D000F306A1F4E4E0F3E086519E4F9F012E5F01
:1009E0003F4F41815081553319F45281651771F0A1
:1009F000F901E40FF11DE817F90780F380E01F917A
:100A00000F91FF90EF90DF90CF90089581E0F7CFA6
:100A1000E0918E01F0918F019F012F5F3F4F309346
:100A20008F0120938E0180830895FF920F931F936F
:100A3000CF93DF93162FF42E052F0E940805812FE8
:100A40000E940805CF2DD02F115020F089910E94CF
:100A50000805FACFDF91CF911F910F91FF90089574
:100A6000FC0101900020E9F73197AF01481B590BB9
:100A7000BC0186EE93E00C9438018F929F92AF9266
:100A8000BF92CF92DF92EF92FF921F93CF93DF93AB
:100A9000CDB7DEB7A1970FB6F894DEBF0FBECDBFBE
:100AA000D62E172F0E943005ED2CF12E10E08AE093
:100AB000882E912CA12CB12CF70121917F0130E0DF
:100AC00050E040E019A26E01F1E2CF0ED11CCA0144
:100AD000B901A50194010E943E0E605DF60162938A
:100AE0006F01211531054105510589F7309719F03E
:100AF000CF010E943005133029F06EE286EE93E0BC
:100B00000E94D8011F5F1430B9F688E491E00E947A
:100B10003005A1960FB6F894DEBF0FBECDBFDF91B2
:100B2000CF911F91FF90EF90DF90CF90BF90AF904B
:100B30009F908F900895DC0196E0FB0101900D924B
:100B40009A95E1F70895CF93DF93EB0144E050E0ED
:100B5000BC0186E092E00E94800E892B49F460E09F
:100B600072E0CE010E949B0581E0DF91CF91089554
:100B700080E0FBCFBC018AEE91E00E949B056DEB0B
:100B800071E080EF91E00C949B05DC0194E0FB01A7
:100B900001900D929A95E1F708950F931F93CF93CB
:100BA0008C0182E491E00E94BA05EAEEF1E088E06F
:100BB0008487C6E0C58748E050E06CE670E088EFC7
:100BC00091E00E94350EEAE0F2E0DF011D92CA9545
:100BD000E9F76DEB71E080E092E00E949B05B801BF
:100BE00080E192E00E94C50562EE73E086E092E04B
:100BF0000E94C5058AE290E0CF911F910F910C945D
:100C0000370480EF91E00E94BA0564E072E088E06A
:100C100092E00E94C50562EE73E084E092E00E94DB
:100C2000C5050C948C03262F206120931902643093
:100C300021F0009711F481E090E061E00E940E0342
:100C40001092FA0188E28093FB010E94010684E081
:100C500080931A0210921B0222E04CE150E06AE1FC
:100C600082E30E94390386E390E00C943704CF932B
:100C7000DF93EB010E94BA05BE0188E092E00E947A
:100C8000C50562EE73E084E092E0DF91CF910C94B1
:100C9000C505EF92FF920F931F93CF93DF938C01C3
:100CA000EAEEF1E086E191E0DF019C011D92215026
:100CB0003040E1F78091BC01C2E4D1E0833011F40F
:100CC000C7EAD1E0CE010E941801BE01882309F4D1
:100CD000ACC087EC91E00E9437068881807F803E1F
:100CE00091F088819981AA81BB818F3F9F4FAF4F3F
:100CF000BF4F49F044E050E0BE0183EC91E00E9418
:100D0000800E892B31F462E471E08AEE91E00E945A
:100D10009B0588E08093F6011092F70149E050E0CE
:100D200064EC70E088EF91E00E94350E1092FA01B9
:100D300081E18093010210920E0283E480930F02FE
:100D400010920C0284E480930D0210921002109213
:100D500012021092130262E471E08AEE91E00E94A6
:100D60009B0581E0809314028093150286E08093B6
:100D700016028091AC019091AD01A091AE01B091AD
:100D8000AF018093180290931902A0931A02B093B6
:100D90001B02C091BC01C33031F462EE73E080E20B
:100DA00092E00E94C5056DEB71E080E392E00E9445
:100DB0009B0580E093E090938F0180938E01E8E69D
:100DC000F0E084910E940805E9E6F0E084910E9439
:100DD0000805EAE6F0E084910E940805EBE6F0E001
:100DE00084910E94080585E30E94080581E00E9425
:100DF000080583E0C11101C081E00E9408058DE370
:100E00000E94080587E00E94080581E00E9408050D
:100E10008DEBE82E81E0F82EC7E0C15049F0D701F4
:100E20008D917D010E940805F8CF8DEC91E053CFA4
:100E300080910001882371F060E071E0FB01019076
:100E40000020E9F7BF016150714040E051E08CE0C3
:100E50000E9415050115110559F0A80164E082E30F
:100E60000E94150547EA51E064E086E30E941505FB
:100E700087E30E94080583E00E94080581E00E9444
:100E8000080583E00E94080586E00E9408058FEFB0
:100E90000E940805C0918E01D0918F01C451D240AB
:100EA000CE014C969093FA018093FB010E948C0333
:100EB000CE0108969093100280931102AE01405F1C
:100EC0005F4F21E06AE188E20E943903CE018A96F1
:100ED000DF91CF911F910F91FF90EF900C94370409
:100EE0001F920F920FB60F9211242F933F934F939F
:100EF0005F936F937F938F939F93AF93BF93EF9382
:100F0000FF9386EE93E00E94B601FF91EF91BF91AF
:100F1000AF919F918F917F916F915F914F913F9191
:100F20002F910F900FBE0F901F9018951F920F9248
:100F30000FB60F9211242F938F939F93EF93FF93EC
:100F4000E091F603F091F7038081E091FC03F091CA
:100F5000FD0382FD1BC090818091FF038F5F8F7323
:100F600020910004821741F0E091FF03F0E0EA5184
:100F7000FC4F958F8093FF03FF91EF919F918F918D
:100F80002F910F900FBE0F901F9018958081F4CF76
:100F90001F920F920FB60F9211242F933F938F93AE
:100FA0009F93AF93BF938091920190919301A091F1
:100FB0009401B09195013091910123E0230F2D37D9
:100FC00058F50196A11DB11D2093910180939201C6
:100FD00090939301A0939401B09395018091960111
:100FE00090919701A0919801B09199010196A11D4E
:100FF000B11D8093960190939701A0939801B093AF
:101000009901BF91AF919F918F913F912F910F9037
:101010000FBE0F901F90189526E8230F0296A11D72
:10102000B11DD2CFCF93DF9300D000D000D0CDB789
:10103000DEB7789484B5826084BD84B5816084BD58
:1010400085B5826085BD85B5816085BD80916E0066
:10105000816080936E001092810080918100826097
:1010600080938100809181008160809381008091D4
:1010700080008160809380008091B10084608093C3
:10108000B1008091B00081608093B00080917A00BF
:10109000846080937A0080917A00826080937A00E5
:1010A00080917A00816080937A0080917A008068D4
:1010B00080937A001092C100E091F603F091F7035B
:1010C00082E08083E091F203F091F3031082E091DB
:1010D000F403F091F5038FEC80831092FE03E0910E
:1010E000FA03F091FB0386E08083E091F803F0912E
:1010F000F903808180618083E091F803F091F90326
:10110000808188608083E091F803F091F903808109
:1011100080688083E091F803F091F90380818F7DEE
:1011200080838BE491E00E94300588E491E00E9486
:1011300030051092E70187E390E0C12CD12C7601B5
:10114000C3940097C1F0FC0123E0F595E7952A953B
:10115000E1F7E556FE4F282F2770B701A60104C01E
:10116000440F551F661F771F2A95D2F72081242B25
:1011700020830197E6CF68E271E08DEB91E00E9459
:101180009B0584EF91E09093A3018093A2010CB49E
:1011900006FC25C061E08AE00E94910261E08AE0DD
:1011A0000E94450261E08BE00E94910261E08DE0C7
:1011B0000E94910260E08CE00E94910261E08BE06D
:1011C0000E94450260E08BE00E94450260E08DE0F5
:1011D0000E94450280E58CBD8DB581608DBD8AE0A1
:1011E00080939A0161E00E9491020E94A0034FEF58
:1011F00060E08FEF0E94D4030E94C2026B017C0169
:1012000092E0892E912CA12CB12C0E94C2026C1963
:101210007D098E099F09683E734081059105A8F3F9
:1012200028EEC20E23E0D21EE11CF11C8A9489280C
:101230008A288B2829F0812C912C54018394E5CFA6
:101240000E94A7038DE10E949B0380E00E949B0304
:101250001EB50E94A003112399F370E060E088E0BE
:101260000E94120470E060E08CE00E9412046FEFB4
:101270007BE08AE00E94120460E07CE084E00E944F
:1012800012046FEF71E186E00E94120466E774E0D9
:1012900084E10E94B50461EB88E30E9405046FE3DA
:1012A00070E388E20E94120469EF77EF80E30E9406
:1012B000120461E080EC0E94050442E362EC80E8E5
:1012C0000E94D40362E17CE086EC0E94120462E199
:1012D00084EC0E9405046CED75E08AEC0E94120417
:1012E0006091BD0184EE0E9405046091BE0185EE0F
:1012F0000E9405046091BF0182EE0E940504609186
:10130000C00183EE0E9405046091C10180EE0E943D
:1013100005046091C20181EE0E94050460E071E065
:1013200080E10E94B5048FE10E94E90340EC6BE18B
:1013300080E80E94D40344E06FE180E80E94D40377
:1013400082E70E941F04863008F08F5F811108C079
:1013500087E591E00E94300588E491E00E94300525
:101360001092E70164E271E082EE93E00E94C5050D
:101370001092E5011092E40181E08093E60160E2C1
:1013800071E080EE91E00E94C505E2EEF3E02EED03
:1013900033E043EC51E09191D9018D919D0180950D
:1013A000892BDA018D93AD01B3E0E63EFB0799F797
:1013B00062EE73E08CE791E00E943D0560EE71E023
:1013C00082E891E00E943D056BED71E088E891E0D4
:1013D0000E943D0514E0E12EFF24F39403E0702EFB
:1013E000ECE26E2EF0E65F2EA8E73A2EB6E04B2E2A
:1013F0008091A601882379F06091A4017091A501E4
:101400006115710509F030C16FEF7BE08CE00E943F
:1014100012041092A60189E30E941F0410E000E06C
:101420008823C1F16091A4017091A50180E00E9420
:101430001204BE016F5F7F4F86E090E00E94AD0313
:1014400089819A819093A5018093A4018D819E81C9
:101450008C010078112787FF12C08B819C81049733
:101460000091A2011091A301015011098017910769
:1014700008F48C016AEE71E0C8010E94AD03F80126
:10148000E651FE4F1082F092A60140E46EE180E842
:101490000E94D4038091E701882369F08091BC0108
:1014A000823009F4EAC008F0E2C0882309F46BC175
:1014B000813009F488C10115110509F015C2809128
:1014C000E601857029F18091E4019091E501892B75
:1014D000F9F461E184ED0E94050461E082ED0E946F
:1014E00005048AEE0E941F0480FDFBCF60E082EDC0
:1014F0000E94050489ED0E941F0482FF09C080EE4E
:1015000091E00E94CD058091E60188608093E6011C
:101510008091E4019091E50101969093E50180931B
:10152000E4018091DF01813009F069C08091E6011A
:1015300081FF65C082E08093DF0180912F018F5F82
:1015400080932F01182F1F7185ED91E00E941801E3
:1015500065ED71E0882309F4C4C187EC91E00E9435
:10156000370608E00093F6011092F70149E050E0D9
:1015700064EC70E088EF91E00E94350E6092FB0110
:10158000409201020E948C0310920E0210920F02F0
:101590008BE080930C0210930D02E0E1F2E0DF019A
:1015A0001D920A95E9F780912E01809312028D5FBA
:1015B00080932E015092180282E08093190270925B
:1015C0001A0210921B0210921C0210921D0210921D
:1015D0001E0210921F0280932002E092210280934B
:1015E000220286E28093230222E040E250E06AE198
:1015F00082E30E9439038AE390E00E9437048BED76
:1016000091E00E941801882371F08091DA01811124
:101610000AC08091D901811106C08BED91E00E9432
:10162000CD05F092D90185ED91E00E941801882343
:1016300071F08091D40181110AC08091D301811190
:1016400006C085ED91E00E94CD05F092D30180E0C7
:1016500090E0892B09F4CCCE0E94A201882309F4E2
:10166000BFCE0E940000BCCE61507109CFCE833046
:1016700009F455C0843009F01ECF65E0C8010E940E
:10168000C804882309F4CAC08091AB01811108C045
:1016900088E30E941F04682F6E7F88E30E94050480
:1016A00064E272E082EE93E00E94C505E4E0F3E0BC
:1016B000C80186519E4F4C016F0192E0C90ED11CAA
:1016C00021808081863009F4FBC008F0BEC08130E3
:1016D00009F4ECC0833009F4EFC0F601E20DF11D0E
:1016E000E815F90548F30E94E7026093B40170938E
:1016F000B5018093B6019093B7018091E0018823F2
:1017000059F01092E5011092E401F092E60160EECA
:1017100071E0CB010E94C5057092BC01CCCE8090D7
:10172000B8019090B901A090BA01B090BB012FEF21
:1017300082169206A206B20609F4BDCE0E94E70206
:101740002091B4013091B5014091B6015091B7019B
:10175000621B730B840B950B681579058A059B0535
:1017600008F4A9CE82EE93E00E944906E092BC0103
:101770000E94E7026093B0017093B1018093B201BF
:101780009093B30198CE0E94E7026093AC017093EE
:10179000AD018093AE019093AF01E2EEF3E0DF0183
:1017A0002E2D1D922A95E9F790E080E00E944906CF
:1017B00088E30E941F04682F616088E30E9405048B
:1017C000F092BC01D5CF62E0C8010E94C804882312
:1017D00029F164E272E0CE0101960E94C505E4E0C1
:1017E000F3E0C80186519E4FBF016E5F7F4F21819C
:1017F0003081363361F487EA91E00E94C505CE015D
:1018000001960E94490682E08093BC01B1CFFB01A2
:10181000E20FF11DE817F90738F3F1CF0E94E70254
:101820002091B0013091B1014091B2015091B301CA
:10183000621B730B840B950B613177428105910517
:1018400008F439CE1092BC0136CE8A3331F08F3F86
:1018500009F449CF833309F040CF1092B8011092B8
:10186000B9011092BA011092BB01F601C6010496AB
:1018700020E030E0A9016191542F432F322F22271D
:10188000260F311D411D511D8E179F07A1F72F3FB8
:10189000AFEF3A074A075A07B9F42093B8013093DB
:1018A000B9014093BA015093BB0117CFB6018EED39
:1018B00093E00E94C50511CFB60180EE91E0F9CF0B
:1018C000B6018BED91E0F5CFA8EEB3E00E94600E7B
:1018D0006093B8017093B9018093BA019093BB01F2
:1018E000FCCE8DEC91E03BCE0932110508F4AFCE71
:1018F0008091F601883009F0AACE8091F7018630F8
:1019000009F03EC144E050E062EE73E080E192E015
:101910000E94800E892B09F09ACE8091FF018130C0
:1019200029F580EF91E00E94BA051092FE0182E055
:101930008093FF0160E072E08AE092E00E949B05E4
:101940006DEB71E080E092E00E949B0566E072E042
:1019500080E192E00E94C50562EE73E086E092E0CD
:101960000E94C5058AE290E00E9437048091E6015A
:1019700083FF0DC01091FF01123049F46DEC71E04E
:1019800080EE91E00E94A30581111093E601809101
:10199000DA01811110C08091D901882361F067ECD0
:1019A00071E08BED91E00E94A305882321F0F09275
:1019B000DA011092D9018091D401811148CE809131
:1019C000D301882309F443CE67EC71E085ED91E003
:1019D0000E94A305882309F43ACEF092D401109214
:1019E000D30135CE0633110508F431CE863009F027
:1019F0002ECE80910E028B3009F04CC044E050E0B6
:101A000065ED71E084E092E00E94800E892B09F080
:101A10001ECE1091190212FF04C085E08093DF01F1
:101A200016CE0E94F3022091DF012230F9F4212F1B
:101A300020711271123179F460E090E080E00E9430
:101A4000130688E1809319027092DF0190E080E034
:101A50000E949704FCCDF092DF010196222311F041
:101A600090E080E064E00E941306F1CD253009F497
:101A7000EECD10FF0AC0233009F4E9CD69E00196EC
:101A80000E9413064092DF01E2CD60E0009709F466
:101A9000DECDE9CF8111DBCD80910F02803509F0D9
:101AA000D6CDD0901902D1FE35C01092FA016092C5
:101AB000FB010E940106B2E1B093190260E081E0EF
:101AC00090E00E940E031092100210921102809179
:101AD0002E0180931202109213028D5F80932E01CB
:101AE00082E080932002E092210285E0809322022E
:101AF000109223025092180280931A0230921B0215
:101B000022E040E250E06AE182E30E9439038AE386
:101B100090E07BC0D4FE9BCD0E94F3029093E9013C
:101B20008093E801892B31F18091180290E024E044
:101B3000959587952A95E1F7880F991F880F991F2A
:101B400082960817190708F482CD4DE051E06DEC3C
:101B500070E080E292E00E94350E60E08091E80142
:101B60009091E9010E94130629E1209319028CE06B
:101B700091E06ECFD0FE6BCD60E090E080E073CF5F
:101B80000932110509F463CD811161CD8091F8010D
:101B9000853409F05CCD44E050E062EE73E088E00B
:101BA00092E00E94800E892BA9F044E050E063ECA3
:101BB00071E088E092E00E94800E892B59F044E0A9
:101BC00050E062E471E088E092E00E94800E892B90
:101BD00009F03DCD80910102813009F003CF809161
:101BE0000C02883009F033CD0E94010610920C02DD
:101BF00080910E02883F28F090910F029F5F909392
:101C00000F02885F80930E02C8010E9437041FCD27
:101C1000E6EEF3E01382128288EE93E0A0E0B0E0FB
:101C200084839583A683B78384E391E09183808343
:101C300085EC90E09587848784EC90E09787868791
:101C400080EC90E0918B808B81EC90E0938B828B89
:101C500082EC90E0958B848B86EC90E0978B868B62
:101C6000118E128E138E148E0895FB01DC0102C0BA
:101C700005900D9241505040D8F70895A1E21A2ED8
:101C8000AA1BBB1BFD010DC0AA1FBB1FEE1FFF1F20
:101C9000A217B307E407F50720F0A21BB30BE40B70
:101CA000F50B661F771F881F991F1A9469F76095B7
:101CB0007095809590959B01AC01BD01CF01089571
:101CC0000E94710EA59F900DB49F900DA49F800D52
:101CD000911D11240895EE0FFF1F0590F491E02D42
:101CE0000994A29FB001B39FC001A39F700D811DF5
:101CF0001124911DB29F700D811D1124911D089515
:101D0000FB01DC0104C08D910190801921F4415048
:0E1D10005040C8F7881B990B0895F894FFCF38
:101D1E0041726475696E6F2D454E4332386A3630A6
:101D2E002D30300000000000000000000000000018
:101D3E00C0A80101C0A801C87469692D30310A011B
:101D4E0000000000D80138016501250296017401DA
:101D5E008801FFFFFFFFFFFF0D0A000A5B62616350
:101D6E006B536F6F6E5D004661696C656420746FB6
:101D7E00206163636573732045746865726E657464
:101D8E0020636F6E74726F6C6C65720049503A20EE
:0E1D9E00200047573A202000444E533A2000C0
:00000001FF
